:100633000C0881CF250D4B1911CD01097FB1011F85
:01064300FFB7
:0B056D0074082FF8E6F5907F057E0073
:10057800EF1FAA0670011E4A600FE4FDEDC39464E4
:0905880050EE000000000D80F3AC
:010591002247
:040661007F03DFFE36
:010665002272
:06064500C2B37F017E003C
:0B064B00EF1FAC0670011E4C70F62281
:0605B600C2A3C2A5D2A3FE
:0205BC00AE0788
:1005BE00C2A5120661EE7E08A2E092A4120661D2D6
:0A05CE00A5120661C2A5C313DEEEFC
:0105D8002200
:1005D9007E08C313D2A4120661A2A492E7D2A5127F
:0F05E9000661C2A5120661DEE9C2A4120661FF17
:0105F80022E0
:1005F900FD3395E0FC7F801206097D807C007F8EAB
:0D0609001205B6AF051205BCD2A5C2A32292
:0A0656001205B61205D9D2A5C2A301
:010660002277
:10013F00E51EFD3395E0FCE51DFB3395E0FAAF1CA2
:10014F00EF3395E0F5318F32AF16EF3395E0F5339E
:10015F008F34AF17EF3395E0F5358F36AF18EF3398
:08016F0095E0F5378F38AF1B56
:100177008C2D8D2EA907E4FDFC7F8E120609AD2E6E
:10018700AC2D7F82120609AD03AC027F84120609EB
:10019700AD32AC317F86120609AD34AC337F88129D
:1001A7000609AD36AC357F8A120609AD38AC377F04
:0801B7008C120609E90205F9AA
:10048100E51B7804A2E713D8FBF526E51B540FF50D
:1004910027E51E7804A2E713D8FBF52AE51E540FC1
:1004A100F52BE51D7804A2E713D8FBF528E51D54CB
:0404B1000FF52922F8
:1004B5007F811206568F1B7F831206568F1E7F85FE
:1004C5001206568F1D7F871206568F1C7F891206CE
:1004D500568F167F8D1206568F187F8B1206568FF4
:0404E5001702048175
:10061600E4F52CD2B37F07FE12064BC2B37FF47EFD
:0D0626000112064BD2B37FC87E0002064BC6
:10054600E4FDFB7D08120645EBC313FBD2B37F0720
:100556007E0012064B30B3034303807F3C7E0012BD
:06056600064BDDE1AF03CE
:01056C00226C
:02059200AD07B3
:10059400E4FB7B08120645ED1392B37F3C7E001208
:1005A400064BD2B3EDC313FD7F077E0012064BDB6F
:0105B400E363
:0105B5002223
:100443001206167FCC1205927F4412059230B3FD3B
:100453001206167FCC1205927FBE12059212054634
:10046300AA07120546EF7D00FCEAFDE4ECC4F8544C
:0D047300F0C868FCEDC4540F48FDAE04FF56
:010480002259
:1004E9008C2C8D2DD2A6851F90C2A712056D851F54
:1004F90090D2A7C2CC7408252D120570851F90D201
:10050900CCC2CD851390120574851F90D2CDD2909F
:0105190022BF
:10023600120481E529FD3395E0FCE52AFB3395E0C0
:0D024600FAAF2BEF3395E0F5358F36AF287A
:100253008C318D328A338B34C2A612056D851F9083
:10026300D2A6C2A774082532120570851F90D2A7A3
:10027300C2CC74082534120570851F90D2CCC2CD30
:1002830074082536120570851F90D2CDE52775F0C9
:0F029300021201BFAFF0BF0103C29022D290222E
:0403FE008E2C8F2D85
:10040200120481E4F52EF52FC3E52F952DE52C641A
:1004120080F8E52E6480985027E529FD3395E0FCAD
:10042200E52AFB3395E0FAAF2BEF3395E0F5358FF4
:1004320036AF28120253052FE52F70CC052E80C847
:010442002297
:10051A00AE19AF1A7C007D641201E17E007F0ACF1A
:10052A00CDCFCECCCE1201E18E208F21AE19AF1ADB
:0C053A007C007D0A1201E18C228D23223E
:100003008E2C8F2DE52D6409452C7023E51DB4231B
:1000130005E4F51D8016E51DB40905751D10800C5A
:10002300E51DB41905751D208002051D120236E574
:100033002D6411452C7022E51D7005751D23801656
:10004300E51DB41005751D09800CE51DB42005756B
:100053001D198002151D120236E52D640A452C7008
:1000630028E51EB45905E4F51E801BE52AC454F0A7
:10007300FFC3E51E9FFFBF090BE52A04FFC454F02D
:10008300F51E8002051E120236E52D6412452C7002
:100093001EE51E7005751E598012E52B700C74F059
:1000A300251EF51E2409F51E8002151E1202362296
:1002A20030B10630B00320B2527F147E00120578BE
:1002B20020B11E75240075250120B115E51524080D
:1002C200FFE43514FE1200037FF47E011203FE8068
:1002D200E820B01E75240075250220B015E515240E
:1002E20010FFE43514FE1200037FF47E011203FEB8
:0C02F20080E820B2067524007525032268
:1002FE00E52564014524700912013FE4F524F52536
:10030E0022E52564024524700912013FE4F524F527
:10031E002522E525640345247030E5156401451456
:10032E007007F514751502801CE5156402451470EE
:10033E0007F514751503800DE51564034514700556
:0B034E00F514751501E4F524F52522D7
:1003B200D2A6D2A7D2CCD2CDD290851F90C2A3C250
:1003C200A5E4F51BF51E751D167518017516017548
:1003D2001701751C01F514751501F524F5257FE843
:1003E2007E031205787F81120656EF30E00DE4FDA0
:0C03F200FC7F8E120609E51B1205F922A3
:100359001203B2E5156403451470171204438E198C
:100369008F1A12051AAD23AC22AF21AE201204E96F
:1003790080201204B5E529FD3395E0FCE52AFB331D
:1003890095E0FAAF2BEF3395E0F5358F36AF2812AC
:1003990002531202A2E525452460B830B1B530B048
:0903A900B230B2AF1202FE80AACC
:030000000200B348
:0C00B300787FE4F6D8FD7581380200FA71
:1001BF00C2D530F707B2D563F0FF05F030E70CB2C8
:1001CF00D5F4048463F0FF05F080018430D502F488
:0201DF000422F8
:1001E100BC000BBE0029EF8DF084FFADF022E4CC02
:1001F100F875F008EF2FFFEE33FEEC33FCEE9DECCB
:10020100984005FCEE9DFE0FD5F0E9E4CEFD22ED10
:10021100F8F5F0EE8420D21CFEADF075F008EF2F5A
:10022100FFED33FD4007985006D5F0F222C398FD4B
:050231000FD5F0EA22E8
:1000BF00020359E493A3F8E493A34003F68001F2FB
:1000CF0008DFF48029E493A3F85407240CC8C33342
:1000DF00C4540F4420C8834004F456800146F6DF11
:1000EF00E4800B0102040810204080900633E47E68
:1000FF00019360BCA3FF543F30E509541FFEE49306
:10010F00A360010ECF54C025E060A840B8E493A3CC
:10011F00FAE493A3F8E493A3C8C582C8CAC583CAF7
:10012F00F0A3C8C582C8CAC583CADFE9DEE780BEAF
:0106440000B5
:00000001FF
